{
  "contractName": "Counter",
  "abi": [
    {
      "anonymous": false,
      "inputs": [
        {
          "indexed": false,
          "internalType": "address",
          "name": "inc",
          "type": "address"
        }
      ],
      "name": "DecrementedBy",
      "type": "event"
    },
    {
      "anonymous": false,
      "inputs": [
        {
          "indexed": false,
          "internalType": "address",
          "name": "inc",
          "type": "address"
        }
      ],
      "name": "IncrementedBy",
      "type": "event"
    },
    {
      "constant": false,
      "inputs": [],
      "name": "incrementCounter",
      "outputs": [],
      "payable": false,
      "stateMutability": "nonpayable",
      "type": "function"
    },
    {
      "constant": false,
      "inputs": [],
      "name": "decrementCounter",
      "outputs": [],
      "payable": false,
      "stateMutability": "nonpayable",
      "type": "function"
    },
    {
      "constant": true,
      "inputs": [],
      "name": "getCount",
      "outputs": [
        {
          "internalType": "int256",
          "name": "",
          "type": "int256"
        }
      ],
      "payable": false,
      "stateMutability": "view",
      "type": "function"
    }
  ],
  "bytecode": "0x60806040526000805534801561001457600080fd5b506101a0806100246000396000f3fe608060405234801561001057600080fd5b50600436106100415760003560e01c80635b34b96614610046578063a87d942c14610050578063f5c5ad831461006e575b600080fd5b61004e610078565b005b6100586100ed565b6040518082815260200191505060405180910390f35b6100766100f6565b005b600160008082825401925050819055507f064b1e66d8d787e36504c45aac3405f69335030ab8dc365a34919de13b61799c33604051808273ffffffffffffffffffffffffffffffffffffffff1673ffffffffffffffffffffffffffffffffffffffff16815260200191505060405180910390a1565b60008054905090565b600160008082825403925050819055507f102d4e03b331a68eaffb991d44063c4452a0b6b650d8fb74b6932d8bd856f1c133604051808273ffffffffffffffffffffffffffffffffffffffff1673ffffffffffffffffffffffffffffffffffffffff16815260200191505060405180910390a156fea265627a7a72315820963135863e1328fe0c11fedc623e29e097902650e6976e7650a1577c1086fc6a64736f6c63430005100032",
  "source": "pragma solidity >=0.4.21 <0.6.0;\n\ncontract Counter {\n    int256 private count = 0;\n    event IncrementedBy(address inc);\n    event DecrementedBy(address inc);\n\n    function incrementCounter() public {\n        count += 1;\n        emit IncrementedBy(msg.sender);\n    }\n\n    function decrementCounter() public {\n        count -= 1;\n        emit DecrementedBy(msg.sender);\n    }\n\n    function getCount() public view returns (int256) {\n        return count;\n    }\n}\n",
  "sourcePath": "/Users/gupadhyaya/go/src/github.com/harmony-one/counter/contracts/Counter.sol",
  "compiler": {
    "name": "solc",
    "version": "0.5.16+commit.9c3226ce.Emscripten.clang"
  },
  "schemaVersion": "3.2.1",
  "updatedAt": "2020-07-10T04:31:47.640Z",
  "devdoc": {
    "methods": {}
  },
  "userdoc": {
    "methods": {}
  }
}